{
  "_format": "hh-sol-artifact-1",
  "contractName": "ResumeContract",
  "sourceName": "contracts/ResumeContract.sol",
  "abi": [
    {
      "inputs": [
        {
          "internalType": "bytes32",
          "name": "_starter_word",
          "type": "bytes32"
        }
      ],
      "stateMutability": "nonpayable",
      "type": "constructor"
    },
    {
      "inputs": [
        {
          "internalType": "bytes32",
          "name": "_word",
          "type": "bytes32"
        }
      ],
      "name": "addWord",
      "outputs": [],
      "stateMutability": "nonpayable",
      "type": "function"
    },
    {
      "inputs": [
        {
          "internalType": "bytes32",
          "name": "_words",
          "type": "bytes32"
        }
      ],
      "name": "addWords",
      "outputs": [],
      "stateMutability": "nonpayable",
      "type": "function"
    },
    {
      "inputs": [
        {
          "internalType": "bytes32",
          "name": "_pw",
          "type": "bytes32"
        }
      ],
      "name": "checkValid",
      "outputs": [
        {
          "internalType": "bool",
          "name": "_valid",
          "type": "bool"
        }
      ],
      "stateMutability": "view",
      "type": "function"
    },
    {
      "inputs": [
        {
          "internalType": "bytes32",
          "name": "_word",
          "type": "bytes32"
        }
      ],
      "name": "removeWord",
      "outputs": [],
      "stateMutability": "nonpayable",
      "type": "function"
    }
  ],
  "bytecode": "0x608060405234801561001057600080fd5b5060405161080238038061080283398181016040528101906100329190610104565b336000806101000a81548173ffffffffffffffffffffffffffffffffffffffff021916908373ffffffffffffffffffffffffffffffffffffffff1602179055506001806000836040516020016100889190610152565b60405160208183030381529060405280519060200120815260200190815260200160002060006101000a81548160ff0219169083151502179055505061016d565b600080fd5b6000819050919050565b6100e1816100ce565b81146100ec57600080fd5b50565b6000815190506100fe816100d8565b92915050565b60006020828403121561011a576101196100c9565b5b6000610128848285016100ef565b91505092915050565b6000819050919050565b61014c610147826100ce565b610131565b82525050565b600061015e828461013b565b60208201915081905092915050565b6106868061017c6000396000f3fe608060405234801561001057600080fd5b506004361061004c5760003560e01c806327261a1d146100515780632855a6b01461006d5780634976816414610089578063cca10242146100b9575b600080fd5b61006b60048036038101906100669190610498565b6100d5565b005b61008760048036038101906100829190610498565b6101ba565b005b6100a3600480360381019061009e9190610498565b6102b7565b6040516100b091906104e0565b60405180910390f35b6100d360048036038101906100ce9190610498565b610360565b005b60008054906101000a900473ffffffffffffffffffffffffffffffffffffffff1673ffffffffffffffffffffffffffffffffffffffff163373ffffffffffffffffffffffffffffffffffffffff161461012d57600080fd5b60005b602060ff168110156101b6576001806000848460208110610154576101536104fb565b5b1a60f81b6040516020016101689190610577565b60405160208183030381529060405280519060200120815260200190815260200160002060006101000a81548160ff02191690831515021790555080806101ae906105cb565b915050610130565b5050565b60008054906101000a900473ffffffffffffffffffffffffffffffffffffffff1673ffffffffffffffffffffffffffffffffffffffff163373ffffffffffffffffffffffffffffffffffffffff161461021257600080fd5b60016000826040516020016102279190610635565b60405160208183030381529060405280519060200120815260200190815260200160002060009054906101000a900460ff161561026357600080fd5b6001806000836040516020016102799190610635565b60405160208183030381529060405280519060200120815260200190815260200160002060006101000a81548160ff02191690831515021790555050565b60008060009054906101000a900473ffffffffffffffffffffffffffffffffffffffff1673ffffffffffffffffffffffffffffffffffffffff163373ffffffffffffffffffffffffffffffffffffffff161461031257600080fd5b60016000836040516020016103279190610635565b60405160208183030381529060405280519060200120815260200190815260200160002060009054906101000a900460ff169050919050565b60008054906101000a900473ffffffffffffffffffffffffffffffffffffffff1673ffffffffffffffffffffffffffffffffffffffff163373ffffffffffffffffffffffffffffffffffffffff16146103b857600080fd5b60016000826040516020016103cd9190610635565b60405160208183030381529060405280519060200120815260200190815260200160002060009054906101000a900460ff1661040857600080fd5b6000600160008360405160200161041f9190610635565b60405160208183030381529060405280519060200120815260200190815260200160002060006101000a81548160ff02191690831515021790555050565b600080fd5b6000819050919050565b61047581610462565b811461048057600080fd5b50565b6000813590506104928161046c565b92915050565b6000602082840312156104ae576104ad61045d565b5b60006104bc84828501610483565b91505092915050565b60008115159050919050565b6104da816104c5565b82525050565b60006020820190506104f560008301846104d1565b92915050565b7f4e487b7100000000000000000000000000000000000000000000000000000000600052603260045260246000fd5b60007fff0000000000000000000000000000000000000000000000000000000000000082169050919050565b6000819050919050565b61057161056c8261052a565b610556565b82525050565b60006105838284610560565b60018201915081905092915050565b7f4e487b7100000000000000000000000000000000000000000000000000000000600052601160045260246000fd5b6000819050919050565b60006105d6826105c1565b91507fffffffffffffffffffffffffffffffffffffffffffffffffffffffffffffffff82141561060957610608610592565b5b600182019050919050565b6000819050919050565b61062f61062a82610462565b610614565b82525050565b6000610641828461061e565b6020820191508190509291505056fea2646970667358221220dd139e555bcc4dd177a08a4988a4248053656ef7a838afc8b0ae07fa244e841f64736f6c63430008090033",
  "linkReferences": {},
  "deployedLinkReferences": {}
}